{
  "_format": "hh-sol-artifact-1",
  "contractName": "WavePortal",
  "sourceName": "contracts/WavePortal.sol",
  "abi": [
    {
      "inputs": [],
      "stateMutability": "nonpayable",
      "type": "constructor"
    },
    {
      "inputs": [],
      "name": "awkwardUnWave",
      "outputs": [],
      "stateMutability": "nonpayable",
      "type": "function"
    },
    {
      "inputs": [
        {
          "internalType": "address",
          "name": "_address",
          "type": "address"
        }
      ],
      "name": "decrementWaveCount",
      "outputs": [],
      "stateMutability": "nonpayable",
      "type": "function"
    },
    {
      "inputs": [],
      "name": "getTotalWaves",
      "outputs": [
        {
          "internalType": "uint256",
          "name": "",
          "type": "uint256"
        }
      ],
      "stateMutability": "view",
      "type": "function"
    },
    {
      "inputs": [
        {
          "internalType": "address",
          "name": "_address",
          "type": "address"
        }
      ],
      "name": "getWaveCount",
      "outputs": [
        {
          "internalType": "uint256",
          "name": "",
          "type": "uint256"
        }
      ],
      "stateMutability": "view",
      "type": "function"
    },
    {
      "inputs": [
        {
          "internalType": "address",
          "name": "_address",
          "type": "address"
        }
      ],
      "name": "incrementWaveCount",
      "outputs": [],
      "stateMutability": "nonpayable",
      "type": "function"
    },
    {
      "inputs": [],
      "name": "wave",
      "outputs": [],
      "stateMutability": "nonpayable",
      "type": "function"
    },
    {
      "inputs": [
        {
          "internalType": "address",
          "name": "",
          "type": "address"
        }
      ],
      "name": "waveCounts",
      "outputs": [
        {
          "internalType": "uint256",
          "name": "",
          "type": "uint256"
        }
      ],
      "stateMutability": "view",
      "type": "function"
    }
  ],
  "bytecode": "0x608060405234801561001057600080fd5b5061003d60405180606001604052806025815260200162000cd16025913961004260201b6104791760201c565b6101bc565b6100de81604051602401610056919061019a565b6040516020818303038152906040527f41304fac000000000000000000000000000000000000000000000000000000007bffffffffffffffffffffffffffffffffffffffffffffffffffffffff19166020820180517bffffffffffffffffffffffffffffffffffffffffffffffffffffffff83818316178352505050506100e160201b60201c565b50565b60008151905060006a636f6e736f6c652e6c6f679050602083016000808483855afa5050505050565b600081519050919050565b600082825260208201905092915050565b60005b83811015610144578082015181840152602081019050610129565b60008484015250505050565b6000601f19601f8301169050919050565b600061016c8261010a565b6101768185610115565b9350610186818560208601610126565b61018f81610150565b840191505092915050565b600060208201905081810360008301526101b48184610161565b905092915050565b610b0580620001cc6000396000f3fe608060405234801561001057600080fd5b506004361061007d5760003560e01c80636fe15b441161005b5780636fe15b44146100fe5780639a2cdc0814610108578063d02ed83014610126578063ddeac47f146101305761007d565b806316f60f801461008257806318c69afc1461009e5780635b2ae087146100ce575b600080fd5b61009c60048036038101906100979190610775565b61014c565b005b6100b860048036038101906100b39190610775565b6101e3565b6040516100c591906107bb565b60405180910390f35b6100e860048036038101906100e39190610775565b6101fb565b6040516100f591906107bb565b60405180910390f35b6101066102c3565b005b6101106102e7565b60405161011d91906107bb565b60405180910390f35b61012e61033c565b005b61014a60048036038101906101459190610775565b610360565b005b600160008273ffffffffffffffffffffffffffffffffffffffff1673ffffffffffffffffffffffffffffffffffffffff168152602001908152602001600020600081548092919061019c90610805565b91905055506101e06040518060400160405280600d81526020017f257320686173207761697665640000000000000000000000000000000000000081525082610512565b50565b60016020528060005260406000206000915090505481565b600061027c6040518060400160405280601981526020017f25732068617320776176656420666f722025642074696d65730000000000000081525083600160008673ffffffffffffffffffffffffffffffffffffffff1673ffffffffffffffffffffffffffffffffffffffff168152602001908152602001600020546105ae565b600160008373ffffffffffffffffffffffffffffffffffffffff1673ffffffffffffffffffffffffffffffffffffffff168152602001908152602001600020549050919050565b60016000808282546102d5919061084d565b925050819055506102e53361014c565b565b600061032a6040518060400160405280601781526020017f5765206861766520256420746f74616c2077617665732100000000000000000081525060005461064d565b610333336101fb565b50600054905090565b600160008082825461034e9190610881565b9250508190555061035e33610360565b565b6000600160008373ffffffffffffffffffffffffffffffffffffffff1673ffffffffffffffffffffffffffffffffffffffff16815260200190815260200160002054116103e2576040517f08c379a00000000000000000000000000000000000000000000000000000000081526004016103d990610938565b60405180910390fd5b600160008273ffffffffffffffffffffffffffffffffffffffff1673ffffffffffffffffffffffffffffffffffffffff168152602001908152602001600020600081548092919061043290610958565b91905055506104766040518060400160405280601881526020017f2573206861732061776b776172646c7920756e7761766564000000000000000081525082610512565b50565b61050f8160405160240161048d9190610a00565b6040516020818303038152906040527f41304fac000000000000000000000000000000000000000000000000000000007bffffffffffffffffffffffffffffffffffffffffffffffffffffffff19166020820180517bffffffffffffffffffffffffffffffffffffffffffffffffffffffff83818316178352505050506106e9565b50565b6105aa8282604051602401610528929190610a31565b6040516020818303038152906040527f319af333000000000000000000000000000000000000000000000000000000007bffffffffffffffffffffffffffffffffffffffffffffffffffffffff19166020820180517bffffffffffffffffffffffffffffffffffffffffffffffffffffffff83818316178352505050506106e9565b5050565b6106488383836040516024016105c693929190610a61565b6040516020818303038152906040527f0d26b925000000000000000000000000000000000000000000000000000000007bffffffffffffffffffffffffffffffffffffffffffffffffffffffff19166020820180517bffffffffffffffffffffffffffffffffffffffffffffffffffffffff83818316178352505050506106e9565b505050565b6106e58282604051602401610663929190610a9f565b6040516020818303038152906040527fb60e72cc000000000000000000000000000000000000000000000000000000007bffffffffffffffffffffffffffffffffffffffffffffffffffffffff19166020820180517bffffffffffffffffffffffffffffffffffffffffffffffffffffffff83818316178352505050506106e9565b5050565b60008151905060006a636f6e736f6c652e6c6f679050602083016000808483855afa5050505050565b600080fd5b600073ffffffffffffffffffffffffffffffffffffffff82169050919050565b600061074282610717565b9050919050565b61075281610737565b811461075d57600080fd5b50565b60008135905061076f81610749565b92915050565b60006020828403121561078b5761078a610712565b5b600061079984828501610760565b91505092915050565b6000819050919050565b6107b5816107a2565b82525050565b60006020820190506107d060008301846107ac565b92915050565b7f4e487b7100000000000000000000000000000000000000000000000000000000600052601160045260246000fd5b6000610810826107a2565b91507fffffffffffffffffffffffffffffffffffffffffffffffffffffffffffffffff8203610842576108416107d6565b5b600182019050919050565b6000610858826107a2565b9150610863836107a2565b925082820190508082111561087b5761087a6107d6565b5b92915050565b600061088c826107a2565b9150610897836107a2565b92508282039050818111156108af576108ae6107d6565b5b92915050565b600082825260208201905092915050565b7f596f7520686176656e2774207761766564207965742e2043616e277420756e7760008201527f6176650000000000000000000000000000000000000000000000000000000000602082015250565b60006109226023836108b5565b915061092d826108c6565b604082019050919050565b6000602082019050818103600083015261095181610915565b9050919050565b6000610963826107a2565b915060008203610976576109756107d6565b5b600182039050919050565b600081519050919050565b60005b838110156109aa57808201518184015260208101905061098f565b60008484015250505050565b6000601f19601f8301169050919050565b60006109d282610981565b6109dc81856108b5565b93506109ec81856020860161098c565b6109f5816109b6565b840191505092915050565b60006020820190508181036000830152610a1a81846109c7565b905092915050565b610a2b81610737565b82525050565b60006040820190508181036000830152610a4b81856109c7565b9050610a5a6020830184610a22565b9392505050565b60006060820190508181036000830152610a7b81866109c7565b9050610a8a6020830185610a22565b610a9760408301846107ac565b949350505050565b60006040820190508181036000830152610ab981856109c7565b9050610ac860208301846107ac565b939250505056fea26469706673582212203cc5a906cc70c60d8a760096f51c21b79fbfc58fe13c6d4459b9e8ca17a65d9f64736f6c63430008110033596f20796f2c204920616d206120636f6e747261637420616e64204920616d20736d617274",
  "linkReferences": {},
  "deployedLinkReferences": {}
}